:100000000C942E000C9468030C9468030C94680301
:100010000C9468030C9468030C9468030C946803B4
:100020000C9468030C9468030C9468030C946803A4
:100030000C9468030C9468030C9468030C94680394
:100040000C9468030C9468030C9468030C94680384
:100050000C946803006000A40006DE0011241FBE9B
:10006000CFE5D8E0DEBFCDBFE4E5F0E040E017C06B
:10007000B591A59135912591059107FD0CC09591FC
:100080008591EF01F92FE82F05900D92A217B30784
:10009000D9F7FE0104C01D92A217B307E1F7EB35B3
:1000A000F40731F70E9460030C945503F894FFCFD6
:1000B000843008F03DC1683008F03CC1443008F09D
:1000C0003BC1413009F454C038F0423009F498C0C3
:1000D000433009F4E1C032C18130B9F028F08230F8
:1000E00029F18330A1F12CC12AB381E090E002C054
:1000F000880F991F6A95E2F7922F982B9ABB9BB3B2
:10010000809589238BBB80E0089527B381E090E040
:1001100002C0880F991F6A95E2F7922F982B97BB20
:1001200098B38095892388BB80E0089524B381E04B
:1001300090E002C0880F991F6A95E2F7922F982BE2
:1001400094BB95B38095892385BB80E0089521B346
:1001500081E090E002C0880F991F6A95E2F7922F24
:10016000982B91BB92B38095892382BB80E0089540
:100170008130B1F028F0823019F1833089F1E2C08A
:100180002AB381E090E002C0880F991F6A95E2F7D8
:10019000922F982B9ABB9BB3892B8BBB80E0089541
:1001A00027B381E090E002C0880F991F6A95E2F7BB
:1001B000922F982B97BB98B3892B88BB80E008952A
:1001C00024B381E090E002C0880F991F6A95E2F79E
:1001D000922F982B94BB95B3892B85BB80E0089513
:1001E00021B381E090E002C0880F991F6A95E2F781
:1001F000922F982B91BB92B3892B82BB80E00895FC
:100200008130B9F028F0823029F18330A1F19CC00F
:100210002AB381E090E002C0880F991F6A95E2F747
:10022000982F909592239ABB9BB3892B8BBB80E030
:10023000089527B381E090E002C0880F991F6A9566
:10024000E2F7982F9095922397BB98B3892B88BBA0
:1002500080E0089524B381E090E002C0880F991FE8
:100260006A95E2F7982F9095922394BB95B3892BCA
:1002700085BB80E0089521B381E090E002C0880F43
:10028000991F6A95E2F7982F9095922391BB92B3AC
:10029000892B82BB80E008958130B9F028F082304C
:1002A00029F18330A1F152C02AB381E090E002C06D
:1002B000880F991F6A95E2F78095922F98239ABB31
:1002C0009BB389238BBB80E0089527B381E090E046
:1002D00002C0880F991F6A95E2F78095922F9823A4
:1002E00097BB98B3892388BB80E0089524B381E04D
:1002F00090E002C0880F991F6A95E2F78095922FCF
:10030000982394BB95B3892385BB80E0089521B3DE
:1003100081E090E002C0880F991F6A95E2F780950E
:10032000922F982391BB92B3892382BB80E00895DA
:1003300083E0089584E0089585E0089580E00895BD
:1003400080E0089580E0089580E0089580E00895B9
:10035000FF920F931F93CF93DF93843608F0A3C0CF
:100360009DEC899FF12C11240F2D0695069506957D
:10037000000F902F990F990F090F801B082FF694EB
:10038000F694F69410E08AC0C12FD0E0FE01EE0F83
:10039000FF1FEC0FFD1FE05AFF4F828181111CC02F
:1003A000E02FF0E0E057FF4F408150E0012E02C007
:1003B000559547950A94E2F7FE01EE0FFF1FEC0FEB
:1003C000FD1FE05AFF4F618180814170552770E029
:1003D00090E00E945E021EC0813009F066C0E02FEE
:1003E000F0E0E656FF4F408150E0012E02C05595E7
:1003F00047950A94E2F7FE01EE0FFF1FEC0FFD1F79
:10040000E05AFF4F618180814170552770E090E094
:100410000E945E02FE01EE0FFF1FEC0FFD1FE05A6F
:10042000FF4F828D81111CC0EF2DF0E0E057FF4F90
:10043000408150E00C2E02C0559547950A94E2F792
:10044000CE01880F991FC80FD91FC05ADF4F698D81
:10045000888D4170552770E090E00E945E021DC0BB
:10046000813029F5EF2DF0E0E656FF4F408150E056
:100470000C2E02C0559547950A94E2F7CE01880FDD
:10048000991FC80FD91FC05ADF4F698D888D4170E1
:10049000552770E090E00E945E021F5F173008F45D
:1004A00073CF81E005C080E003C080E001C080E040
:0C04B000DF91CF911F910F91FF900895F4
:1004BC00843008F07FC0683008F07EC0423008F00D
:1004CC007DC04423D9F1413009F07AC0813091F0DC
:1004DC0028F08230D9F0833029F174C02BB381E03D
:1004EC0090E002C0880F991F6A95E2F7822B8BBBB4
:1004FC0080E0089528B381E090E002C0880F991F36
:10050C006A95E2F7822B88BB80E0089525B381E0E1
:10051C0090E002C0880F991F6A95E2F7822B85BB89
:10052C0080E0089522B381E090E002C0880F991F0B
:10053C006A95E2F7822B82BB80E00895813099F0B6
:10054C0028F08230E9F0833041F13EC02BB381E0DA
:10055C0090E002C0880F991F6A95E2F7809582237C
:10056C008BBB80E0089528B381E090E002C0880F37
:10057C00991F6A95E2F78095822388BB80E00895E5
:10058C0025B381E090E002C0880F991F6A95E2F7CD
:10059C008095822385BB80E0089522B381E090E0B2
:1005AC0002C0880F991F6A95E2F78095822382BB5F
:1005BC0080E0089583E0089584E0089585E008952F
:0C05CC0080E0089580E0089580E008952C
:1005D800CF93DF93D0E060C08D2F90E04C2F50E098
:1005E800FA01EE0FFF1F9F01240F351FFC01EE0FCC
:1005F800FF1FE80FF91FEE0FFF1FEE0FFF1FEE0F93
:10060800FF1FE20FF31FE05AFF4F228121111EC086
:10061800FA01EE0FFF1FE40FF51F9C01220F331F95
:10062800D901A80FB91FAA0FBB1FAA0FBB1FAA0F7A
:10063800BB1FAE0FBF1FA05ABF4F11966C911197E9
:10064800FD0140E080810E9458001FC02130E9F47C
:10065800FA01EE0FFF1FE40FF51F9C01220F331F55
:10066800D901A80FB91FAA0FBB1FAA0FBB1FAA0F3A
:10067800BB1FAE0FBF1FA05ABF4F11966C911197A9
:10068800FD0141E080810E945800CF5F01C0C0E0B9
:10069800C83008F4A1CFDF5FD230C8F3DF91CF9123
:0206A8000895B3
:1006AA00EC010E946D030E946C03CE010E946E034E
:0606BA00CE010E946A035C
:1006C0000E94EC0284E60E94A80180E090E0089578
:0406D0000C94000086
:0406D4000E9456002A
:0206D800089583
:0206DA00089581
:0206DC0008957F
:1006DE000000000001000002000003000004000002
:1006EE0005000006000007000200010201010202DF
:1006FE0001020301020401020501020601020701C3
:0A070E003F065B4F666D7D077F6FAD
:0A071800C0F9A4B0999282F8809015
:00000001FF
